{
  "_format": "hh-sol-artifact-1",
  "contractName": "Collectible",
  "sourceName": "contracts/Collectible.sol",
  "abi": [
    {
      "inputs": [
        {
          "internalType": "string",
          "name": "baseURI",
          "type": "string"
        }
      ],
      "stateMutability": "nonpayable",
      "type": "constructor"
    },
    {
      "anonymous": false,
      "inputs": [
        {
          "indexed": true,
          "internalType": "address",
          "name": "owner",
          "type": "address"
        },
        {
          "indexed": true,
          "internalType": "address",
          "name": "approved",
          "type": "address"
        },
        {
          "indexed": true,
          "internalType": "uint256",
          "name": "tokenId",
          "type": "uint256"
        }
      ],
      "name": "Approval",
      "type": "event"
    },
    {
      "anonymous": false,
      "inputs": [
        {
          "indexed": true,
          "internalType": "address",
          "name": "owner",
          "type": "address"
        },
        {
          "indexed": true,
          "internalType": "address",
          "name": "operator",
          "type": "address"
        },
        {
          "indexed": false,
          "internalType": "bool",
          "name": "approved",
          "type": "bool"
        }
      ],
      "name": "ApprovalForAll",
      "type": "event"
    },
    {
      "anonymous": false,
      "inputs": [
        {
          "indexed": true,
          "internalType": "address",
          "name": "previousOwner",
          "type": "address"
        },
        {
          "indexed": true,
          "internalType": "address",
          "name": "newOwner",
          "type": "address"
        }
      ],
      "name": "OwnershipTransferred",
      "type": "event"
    },
    {
      "anonymous": false,
      "inputs": [
        {
          "indexed": true,
          "internalType": "address",
          "name": "from",
          "type": "address"
        },
        {
          "indexed": true,
          "internalType": "address",
          "name": "to",
          "type": "address"
        },
        {
          "indexed": true,
          "internalType": "uint256",
          "name": "tokenId",
          "type": "uint256"
        }
      ],
      "name": "Transfer",
      "type": "event"
    },
    {
      "inputs": [],
      "name": "MAX_PER_MINT",
      "outputs": [
        {
          "internalType": "uint256",
          "name": "",
          "type": "uint256"
        }
      ],
      "stateMutability": "view",
      "type": "function"
    },
    {
      "inputs": [],
      "name": "MAX_SUPPLY",
      "outputs": [
        {
          "internalType": "uint256",
          "name": "",
          "type": "uint256"
        }
      ],
      "stateMutability": "view",
      "type": "function"
    },
    {
      "inputs": [],
      "name": "PRICE",
      "outputs": [
        {
          "internalType": "uint256",
          "name": "",
          "type": "uint256"
        }
      ],
      "stateMutability": "view",
      "type": "function"
    },
    {
      "inputs": [
        {
          "internalType": "address",
          "name": "to",
          "type": "address"
        },
        {
          "internalType": "uint256",
          "name": "tokenId",
          "type": "uint256"
        }
      ],
      "name": "approve",
      "outputs": [],
      "stateMutability": "nonpayable",
      "type": "function"
    },
    {
      "inputs": [
        {
          "internalType": "address",
          "name": "owner",
          "type": "address"
        }
      ],
      "name": "balanceOf",
      "outputs": [
        {
          "internalType": "uint256",
          "name": "",
          "type": "uint256"
        }
      ],
      "stateMutability": "view",
      "type": "function"
    },
    {
      "inputs": [],
      "name": "baseTokenURI",
      "outputs": [
        {
          "internalType": "string",
          "name": "",
          "type": "string"
        }
      ],
      "stateMutability": "view",
      "type": "function"
    },
    {
      "inputs": [
        {
          "internalType": "uint256",
          "name": "tokenId",
          "type": "uint256"
        }
      ],
      "name": "getApproved",
      "outputs": [
        {
          "internalType": "address",
          "name": "",
          "type": "address"
        }
      ],
      "stateMutability": "view",
      "type": "function"
    },
    {
      "inputs": [],
      "name": "getLastTokenId",
      "outputs": [
        {
          "internalType": "uint256",
          "name": "",
          "type": "uint256"
        }
      ],
      "stateMutability": "view",
      "type": "function"
    },
    {
      "inputs": [
        {
          "internalType": "address",
          "name": "owner",
          "type": "address"
        },
        {
          "internalType": "address",
          "name": "operator",
          "type": "address"
        }
      ],
      "name": "isApprovedForAll",
      "outputs": [
        {
          "internalType": "bool",
          "name": "",
          "type": "bool"
        }
      ],
      "stateMutability": "view",
      "type": "function"
    },
    {
      "inputs": [
        {
          "internalType": "uint256",
          "name": "_count",
          "type": "uint256"
        }
      ],
      "name": "mintNFTs",
      "outputs": [],
      "stateMutability": "payable",
      "type": "function"
    },
    {
      "inputs": [],
      "name": "name",
      "outputs": [
        {
          "internalType": "string",
          "name": "",
          "type": "string"
        }
      ],
      "stateMutability": "view",
      "type": "function"
    },
    {
      "inputs": [],
      "name": "owner",
      "outputs": [
        {
          "internalType": "address",
          "name": "",
          "type": "address"
        }
      ],
      "stateMutability": "view",
      "type": "function"
    },
    {
      "inputs": [
        {
          "internalType": "uint256",
          "name": "tokenId",
          "type": "uint256"
        }
      ],
      "name": "ownerOf",
      "outputs": [
        {
          "internalType": "address",
          "name": "",
          "type": "address"
        }
      ],
      "stateMutability": "view",
      "type": "function"
    },
    {
      "inputs": [],
      "name": "renounceOwnership",
      "outputs": [],
      "stateMutability": "nonpayable",
      "type": "function"
    },
    {
      "inputs": [],
      "name": "reserveNFTs",
      "outputs": [],
      "stateMutability": "nonpayable",
      "type": "function"
    },
    {
      "inputs": [
        {
          "internalType": "address",
          "name": "from",
          "type": "address"
        },
        {
          "internalType": "address",
          "name": "to",
          "type": "address"
        },
        {
          "internalType": "uint256",
          "name": "tokenId",
          "type": "uint256"
        }
      ],
      "name": "safeTransferFrom",
      "outputs": [],
      "stateMutability": "nonpayable",
      "type": "function"
    },
    {
      "inputs": [
        {
          "internalType": "address",
          "name": "from",
          "type": "address"
        },
        {
          "internalType": "address",
          "name": "to",
          "type": "address"
        },
        {
          "internalType": "uint256",
          "name": "tokenId",
          "type": "uint256"
        },
        {
          "internalType": "bytes",
          "name": "_data",
          "type": "bytes"
        }
      ],
      "name": "safeTransferFrom",
      "outputs": [],
      "stateMutability": "nonpayable",
      "type": "function"
    },
    {
      "inputs": [
        {
          "internalType": "address",
          "name": "operator",
          "type": "address"
        },
        {
          "internalType": "bool",
          "name": "approved",
          "type": "bool"
        }
      ],
      "name": "setApprovalForAll",
      "outputs": [],
      "stateMutability": "nonpayable",
      "type": "function"
    },
    {
      "inputs": [
        {
          "internalType": "string",
          "name": "_baseTokenURI",
          "type": "string"
        }
      ],
      "name": "setBaseURI",
      "outputs": [],
      "stateMutability": "nonpayable",
      "type": "function"
    },
    {
      "inputs": [
        {
          "internalType": "bytes4",
          "name": "interfaceId",
          "type": "bytes4"
        }
      ],
      "name": "supportsInterface",
      "outputs": [
        {
          "internalType": "bool",
          "name": "",
          "type": "bool"
        }
      ],
      "stateMutability": "view",
      "type": "function"
    },
    {
      "inputs": [],
      "name": "symbol",
      "outputs": [
        {
          "internalType": "string",
          "name": "",
          "type": "string"
        }
      ],
      "stateMutability": "view",
      "type": "function"
    },
    {
      "inputs": [
        {
          "internalType": "uint256",
          "name": "index",
          "type": "uint256"
        }
      ],
      "name": "tokenByIndex",
      "outputs": [
        {
          "internalType": "uint256",
          "name": "",
          "type": "uint256"
        }
      ],
      "stateMutability": "view",
      "type": "function"
    },
    {
      "inputs": [
        {
          "internalType": "address",
          "name": "owner",
          "type": "address"
        },
        {
          "internalType": "uint256",
          "name": "index",
          "type": "uint256"
        }
      ],
      "name": "tokenOfOwnerByIndex",
      "outputs": [
        {
          "internalType": "uint256",
          "name": "",
          "type": "uint256"
        }
      ],
      "stateMutability": "view",
      "type": "function"
    },
    {
      "inputs": [
        {
          "internalType": "uint256",
          "name": "tokenId",
          "type": "uint256"
        }
      ],
      "name": "tokenURI",
      "outputs": [
        {
          "internalType": "string",
          "name": "",
          "type": "string"
        }
      ],
      "stateMutability": "view",
      "type": "function"
    },
    {
      "inputs": [
        {
          "internalType": "address",
          "name": "_owner",
          "type": "address"
        }
      ],
      "name": "tokensOfOwner",
      "outputs": [
        {
          "internalType": "uint256[]",
          "name": "",
          "type": "uint256[]"
        }
      ],
      "stateMutability": "view",
      "type": "function"
    },
    {
      "inputs": [],
      "name": "totalSupply",
      "outputs": [
        {
          "internalType": "uint256",
          "name": "",
          "type": "uint256"
        }
      ],
      "stateMutability": "view",
      "type": "function"
    },
    {
      "inputs": [
        {
          "internalType": "address",
          "name": "from",
          "type": "address"
        },
        {
          "internalType": "address",
          "name": "to",
          "type": "address"
        },
        {
          "internalType": "uint256",
          "name": "tokenId",
          "type": "uint256"
        }
      ],
      "name": "transferFrom",
      "outputs": [],
      "stateMutability": "nonpayable",
      "type": "function"
    },
    {
      "inputs": [
        {
          "internalType": "address",
          "name": "newOwner",
          "type": "address"
        }
      ],
      "name": "transferOwnership",
      "outputs": [],
      "stateMutability": "nonpayable",
      "type": "function"
    },
    {
      "inputs": [],
      "name": "withdraw",
      "outputs": [],
      "stateMutability": "payable",
      "type": "function"
    }
  ],
  "bytecode": "0x60806040523480156200001157600080fd5b50604051620048d9380380620048d98339818101604052810190620000379190620003d4565b6040518060400160405280600f81526020017f4e465420436f6c6c65637469626c6500000000000000000000000000000000008152506040518060400160405280600481526020017f4e465443000000000000000000000000000000000000000000000000000000008152508160009080519060200190620000bb929190620002b2565b508060019080519060200190620000d4929190620002b2565b505050620000f7620000eb6200010f60201b60201c565b6200011760201b60201c565b6200010881620001dd60201b60201c565b506200060c565b600033905090565b6000600a60009054906101000a900473ffffffffffffffffffffffffffffffffffffffff16905081600a60006101000a81548173ffffffffffffffffffffffffffffffffffffffff021916908373ffffffffffffffffffffffffffffffffffffffff1602179055508173ffffffffffffffffffffffffffffffffffffffff168173ffffffffffffffffffffffffffffffffffffffff167f8be0079c531659141344cd1fd0a4f28419497f9722a3daafe3b4186f6b6457e060405160405180910390a35050565b620001ed6200010f60201b60201c565b73ffffffffffffffffffffffffffffffffffffffff16620002136200028860201b60201c565b73ffffffffffffffffffffffffffffffffffffffff16146200026c576040517f08c379a0000000000000000000000000000000000000000000000000000000008152600401620002639062000440565b60405180910390fd5b80600b908051906020019062000284929190620002b2565b5050565b6000600a60009054906101000a900473ffffffffffffffffffffffffffffffffffffffff16905090565b828054620002c09062000508565b90600052602060002090601f016020900481019282620002e4576000855562000330565b82601f10620002ff57805160ff191683800117855562000330565b8280016001018555821562000330579182015b828111156200032f57825182559160200191906001019062000312565b5b5090506200033f919062000343565b5090565b5b808211156200035e57600081600090555060010162000344565b5090565b60006200037962000373846200048b565b62000462565b9050828152602081018484840111156200039257600080fd5b6200039f848285620004d2565b509392505050565b600082601f830112620003b957600080fd5b8151620003cb84826020860162000362565b91505092915050565b600060208284031215620003e757600080fd5b600082015167ffffffffffffffff8111156200040257600080fd5b6200041084828501620003a7565b91505092915050565b600062000428602083620004c1565b91506200043582620005e3565b602082019050919050565b600060208201905081810360008301526200045b8162000419565b9050919050565b60006200046e62000481565b90506200047c82826200053e565b919050565b6000604051905090565b600067ffffffffffffffff821115620004a957620004a8620005a3565b5b620004b482620005d2565b9050602081019050919050565b600082825260208201905092915050565b60005b83811015620004f2578082015181840152602081019050620004d5565b8381111562000502576000848401525b50505050565b600060028204905060018216806200052157607f821691505b6020821081141562000538576200053762000574565b5b50919050565b6200054982620005d2565b810181811067ffffffffffffffff821117156200056b576200056a620005a3565b5b80604052505050565b7f4e487b7100000000000000000000000000000000000000000000000000000000600052602260045260246000fd5b7f4e487b7100000000000000000000000000000000000000000000000000000000600052604160045260246000fd5b6000601f19601f8301169050919050565b7f4f776e61626c653a2063616c6c6572206973206e6f7420746865206f776e6572600082015250565b6142bd806200061c6000396000f3fe6080604052600436106101c25760003560e01c806355f804b3116100f75780638da5cb5b11610095578063c87b56dd11610064578063c87b56dd14610614578063d547cfb714610651578063e985e9c51461067c578063f2fde38b146106b9576101c2565b80638da5cb5b1461056c57806395d89b4114610597578063a22cb465146105c2578063b88d4fde146105eb576101c2565b8063715018a6116100d1578063715018a6146104c257806383c4c00d146104d95780638462151c146105045780638d859f3e14610541576101c2565b806355f804b31461041f5780636352211e1461044857806370a0823114610485576101c2565b806323b872dd116101645780633b4b13811161013e5780633b4b1381146103935780633ccfd60b146103af57806342842e0e146103b95780634f6ccce7146103e2576101c2565b806323b872dd146103025780632f745c591461032b57806332cb6b0c14610368576101c2565b8063095ea7b3116101a0578063095ea7b31461026c57806309d42b3014610295578063144100c7146102c057806318160ddd146102d7576101c2565b806301ffc9a7146101c757806306fdde0314610204578063081812fc1461022f575b600080fd5b3480156101d357600080fd5b506101ee60048036038101906101e99190612dd7565b6106e2565b6040516101fb9190613415565b60405180910390f35b34801561021057600080fd5b5061021961075c565b6040516102269190613430565b60405180910390f35b34801561023b57600080fd5b5061025660048036038101906102519190612e6a565b6107ee565b604051610263919061338c565b60405180910390f35b34801561027857600080fd5b50610293600480360381019061028e9190612d9b565b610873565b005b3480156102a157600080fd5b506102aa61098b565b6040516102b79190613752565b60405180910390f35b3480156102cc57600080fd5b506102d5610990565b005b3480156102e357600080fd5b506102ec610a9b565b6040516102f99190613752565b60405180910390f35b34801561030e57600080fd5b5061032960048036038101906103249190612c95565b610aa8565b005b34801561033757600080fd5b50610352600480360381019061034d9190612d9b565b610b08565b60405161035f9190613752565b60405180910390f35b34801561037457600080fd5b5061037d610bad565b60405161038a9190613752565b60405180910390f35b6103ad60048036038101906103a89190612e6a565b610bb2565b005b6103b7610ced565b005b3480156103c557600080fd5b506103e060048036038101906103db9190612c95565b610e61565b005b3480156103ee57600080fd5b5061040960048036038101906104049190612e6a565b610e81565b6040516104169190613752565b60405180910390f35b34801561042b57600080fd5b5061044660048036038101906104419190612e29565b610f18565b005b34801561045457600080fd5b5061046f600480360381019061046a9190612e6a565b610fae565b60405161047c919061338c565b60405180910390f35b34801561049157600080fd5b506104ac60048036038101906104a79190612c30565b611060565b6040516104b99190613752565b60405180910390f35b3480156104ce57600080fd5b506104d7611118565b005b3480156104e557600080fd5b506104ee6111a0565b6040516104fb9190613752565b60405180910390f35b34801561051057600080fd5b5061052b60048036038101906105269190612c30565b6111b6565b60405161053891906133f3565b60405180910390f35b34801561054d57600080fd5b506105566112b0565b6040516105639190613752565b60405180910390f35b34801561057857600080fd5b506105816112bb565b60405161058e919061338c565b60405180910390f35b3480156105a357600080fd5b506105ac6112e5565b6040516105b99190613430565b60405180910390f35b3480156105ce57600080fd5b506105e960048036038101906105e49190612d5f565b611377565b005b3480156105f757600080fd5b50610612600480360381019061060d9190612ce4565b61138d565b005b34801561062057600080fd5b5061063b60048036038101906106369190612e6a565b6113ef565b6040516106489190613430565b60405180910390f35b34801561065d57600080fd5b50610666611496565b6040516106739190613430565b60405180910390f35b34801561068857600080fd5b506106a3600480360381019061069e9190612c59565b611524565b6040516106b09190613415565b60405180910390f35b3480156106c557600080fd5b506106e060048036038101906106db9190612c30565b6115b8565b005b60007f780e9d63000000000000000000000000000000000000000000000000000000007bffffffffffffffffffffffffffffffffffffffffffffffffffffffff1916827bffffffffffffffffffffffffffffffffffffffffffffffffffffffff191614806107555750610754826116b0565b5b9050919050565b60606000805461076b90613a46565b80601f016020809104026020016040519081016040528092919081815260200182805461079790613a46565b80156107e45780601f106107b9576101008083540402835291602001916107e4565b820191906000526020600020905b8154815290600101906020018083116107c757829003601f168201915b5050505050905090565b60006107f982611792565b610838576040517f08c379a000000000000000000000000000000000000000000000000000000000815260040161082f90613672565b60405180910390fd5b6004600083815260200190815260200160002060009054906101000a900473ffffffffffffffffffffffffffffffffffffffff169050919050565b600061087e82610fae565b90508073ffffffffffffffffffffffffffffffffffffffff168373ffffffffffffffffffffffffffffffffffffffff1614156108ef576040517f08c379a00000000000000000000000000000000000000000000000000000000081526004016108e6906136d2565b60405180910390fd5b8073ffffffffffffffffffffffffffffffffffffffff1661090e6117fe565b73ffffffffffffffffffffffffffffffffffffffff16148061093d575061093c816109376117fe565b611524565b5b61097c576040517f08c379a0000000000000000000000000000000000000000000000000000000008152600401610973906135b2565b60405180910390fd5b6109868383611806565b505050565b600381565b6109986117fe565b73ffffffffffffffffffffffffffffffffffffffff166109b66112bb565b73ffffffffffffffffffffffffffffffffffffffff1614610a0c576040517f08c379a0000000000000000000000000000000000000000000000000000000008152600401610a0390613692565b60405180910390fd5b6000610a18600c6118bf565b9050601e610a30600a836118cd90919063ffffffff16565b10610a70576040517f08c379a0000000000000000000000000000000000000000000000000000000008152600401610a6790613612565b60405180910390fd5b60005b600a811015610a9757610a846118e3565b8080610a8f90613aa9565b915050610a73565b5050565b6000600880549050905090565b610ab9610ab36117fe565b82611908565b610af8576040517f08c379a0000000000000000000000000000000000000000000000000000000008152600401610aef90613712565b60405180910390fd5b610b038383836119e6565b505050565b6000610b1383611060565b8210610b54576040517f08c379a0000000000000000000000000000000000000000000000000000000008152600401610b4b90613472565b60405180910390fd5b600660008473ffffffffffffffffffffffffffffffffffffffff1673ffffffffffffffffffffffffffffffffffffffff168152602001908152602001600020600083815260200190815260200160002054905092915050565b601e81565b6000610bbe600c6118bf565b9050601e610bd583836118cd90919063ffffffff16565b1115610c16576040517f08c379a0000000000000000000000000000000000000000000000000000000008152600401610c0d90613452565b60405180910390fd5b600082118015610c27575060038211155b610c66576040517f08c379a0000000000000000000000000000000000000000000000000000000008152600401610c5d90613572565b60405180910390fd5b610c8082662386f26fc10000611c4d90919063ffffffff16565b341015610cc2576040517f08c379a0000000000000000000000000000000000000000000000000000000008152600401610cb990613552565b60405180910390fd5b60005b82811015610ce857610cd56118e3565b8080610ce090613aa9565b915050610cc5565b505050565b610cf56117fe565b73ffffffffffffffffffffffffffffffffffffffff16610d136112bb565b73ffffffffffffffffffffffffffffffffffffffff1614610d69576040517f08c379a0000000000000000000000000000000000000000000000000000000008152600401610d6090613692565b60405180910390fd5b600047905060008111610db1576040517f08c379a0000000000000000000000000000000000000000000000000000000008152600401610da890613652565b60405180910390fd5b60003373ffffffffffffffffffffffffffffffffffffffff1682604051610dd790613377565b60006040518083038185875af1925050503d8060008114610e14576040519150601f19603f3d011682016040523d82523d6000602084013e610e19565b606091505b5050905080610e5d576040517f08c379a0000000000000000000000000000000000000000000000000000000008152600401610e54906136f2565b60405180910390fd5b5050565b610e7c8383836040518060200160405280600081525061138d565b505050565b6000610e8b610a9b565b8210610ecc576040517f08c379a0000000000000000000000000000000000000000000000000000000008152600401610ec390613732565b60405180910390fd5b60088281548110610f06577f4e487b7100000000000000000000000000000000000000000000000000000000600052603260045260246000fd5b90600052602060002001549050919050565b610f206117fe565b73ffffffffffffffffffffffffffffffffffffffff16610f3e6112bb565b73ffffffffffffffffffffffffffffffffffffffff1614610f94576040517f08c379a0000000000000000000000000000000000000000000000000000000008152600401610f8b90613692565b60405180910390fd5b80600b9080519060200190610faa929190612a54565b5050565b6000806002600084815260200190815260200160002060009054906101000a900473ffffffffffffffffffffffffffffffffffffffff169050600073ffffffffffffffffffffffffffffffffffffffff168173ffffffffffffffffffffffffffffffffffffffff161415611057576040517f08c379a000000000000000000000000000000000000000000000000000000000815260040161104e906135f2565b60405180910390fd5b80915050919050565b60008073ffffffffffffffffffffffffffffffffffffffff168273ffffffffffffffffffffffffffffffffffffffff1614156110d1576040517f08c379a00000000000000000000000000000000000000000000000000000000081526004016110c8906135d2565b60405180910390fd5b600360008373ffffffffffffffffffffffffffffffffffffffff1673ffffffffffffffffffffffffffffffffffffffff168152602001908152602001600020549050919050565b6111206117fe565b73ffffffffffffffffffffffffffffffffffffffff1661113e6112bb565b73ffffffffffffffffffffffffffffffffffffffff1614611194576040517f08c379a000000000000000000000000000000000000000000000000000000000815260040161118b90613692565b60405180910390fd5b61119e6000611c63565b565b6000806111ad600c6118bf565b90508091505090565b606060006111c383611060565b905060008167ffffffffffffffff811115611207577f4e487b7100000000000000000000000000000000000000000000000000000000600052604160045260246000fd5b6040519080825280602002602001820160405280156112355781602001602082028036833780820191505090505b50905060005b828110156112a55761124d8582610b08565b828281518110611286577f4e487b7100000000000000000000000000000000000000000000000000000000600052603260045260246000fd5b602002602001018181525050808061129d90613aa9565b91505061123b565b508092505050919050565b662386f26fc1000081565b6000600a60009054906101000a900473ffffffffffffffffffffffffffffffffffffffff16905090565b6060600180546112f490613a46565b80601f016020809104026020016040519081016040528092919081815260200182805461132090613a46565b801561136d5780601f106113425761010080835404028352916020019161136d565b820191906000526020600020905b81548152906001019060200180831161135057829003601f168201915b5050505050905090565b6113896113826117fe565b8383611d29565b5050565b61139e6113986117fe565b83611908565b6113dd576040517f08c379a00000000000000000000000000000000000000000000000000000000081526004016113d490613712565b60405180910390fd5b6113e984848484611e96565b50505050565b60606113fa82611792565b611439576040517f08c379a0000000000000000000000000000000000000000000000000000000008152600401611430906136b2565b60405180910390fd5b6000611443611ef2565b90506000815111611463576040518060200160405280600081525061148e565b8061146d84611f84565b60405160200161147e929190613353565b6040516020818303038152906040525b915050919050565b600b80546114a390613a46565b80601f01602080910402602001604051908101604052809291908181526020018280546114cf90613a46565b801561151c5780601f106114f15761010080835404028352916020019161151c565b820191906000526020600020905b8154815290600101906020018083116114ff57829003601f168201915b505050505081565b6000600560008473ffffffffffffffffffffffffffffffffffffffff1673ffffffffffffffffffffffffffffffffffffffff16815260200190815260200160002060008373ffffffffffffffffffffffffffffffffffffffff1673ffffffffffffffffffffffffffffffffffffffff16815260200190815260200160002060009054906101000a900460ff16905092915050565b6115c06117fe565b73ffffffffffffffffffffffffffffffffffffffff166115de6112bb565b73ffffffffffffffffffffffffffffffffffffffff1614611634576040517f08c379a000000000000000000000000000000000000000000000000000000000815260040161162b90613692565b60405180910390fd5b600073ffffffffffffffffffffffffffffffffffffffff168173ffffffffffffffffffffffffffffffffffffffff1614156116a4576040517f08c379a000000000000000000000000000000000000000000000000000000000815260040161169b906134b2565b60405180910390fd5b6116ad81611c63565b50565b60007f80ac58cd000000000000000000000000000000000000000000000000000000007bffffffffffffffffffffffffffffffffffffffffffffffffffffffff1916827bffffffffffffffffffffffffffffffffffffffffffffffffffffffff1916148061177b57507f5b5e139f000000000000000000000000000000000000000000000000000000007bffffffffffffffffffffffffffffffffffffffffffffffffffffffff1916827bffffffffffffffffffffffffffffffffffffffffffffffffffffffff1916145b8061178b575061178a82612131565b5b9050919050565b60008073ffffffffffffffffffffffffffffffffffffffff166002600084815260200190815260200160002060009054906101000a900473ffffffffffffffffffffffffffffffffffffffff1673ffffffffffffffffffffffffffffffffffffffff1614159050919050565b600033905090565b816004600083815260200190815260200160002060006101000a81548173ffffffffffffffffffffffffffffffffffffffff021916908373ffffffffffffffffffffffffffffffffffffffff160217905550808273ffffffffffffffffffffffffffffffffffffffff1661187983610fae565b73ffffffffffffffffffffffffffffffffffffffff167f8c5be1e5ebec7d5bd14f71427d1e84f3dd0314c0f7b2291e5b200ac8c7c3b92560405160405180910390a45050565b600081600001549050919050565b600081836118db919061387b565b905092915050565b60006118ef600c6118bf565b90506118fb338261219b565b611905600c6121b9565b50565b600061191382611792565b611952576040517f08c379a000000000000000000000000000000000000000000000000000000000815260040161194990613592565b60405180910390fd5b600061195d83610fae565b90508073ffffffffffffffffffffffffffffffffffffffff168473ffffffffffffffffffffffffffffffffffffffff1614806119cc57508373ffffffffffffffffffffffffffffffffffffffff166119b4846107ee565b73ffffffffffffffffffffffffffffffffffffffff16145b806119dd57506119dc8185611524565b5b91505092915050565b8273ffffffffffffffffffffffffffffffffffffffff16611a0682610fae565b73ffffffffffffffffffffffffffffffffffffffff1614611a5c576040517f08c379a0000000000000000000000000000000000000000000000000000000008152600401611a53906134d2565b60405180910390fd5b600073ffffffffffffffffffffffffffffffffffffffff168273ffffffffffffffffffffffffffffffffffffffff161415611acc576040517f08c379a0000000000000000000000000000000000000000000000000000000008152600401611ac390613512565b60405180910390fd5b611ad78383836121cf565b611ae2600082611806565b6001600360008573ffffffffffffffffffffffffffffffffffffffff1673ffffffffffffffffffffffffffffffffffffffff1681526020019081526020016000206000828254611b32919061395c565b925050819055506001600360008473ffffffffffffffffffffffffffffffffffffffff1673ffffffffffffffffffffffffffffffffffffffff1681526020019081526020016000206000828254611b89919061387b565b92505081905550816002600083815260200190815260200160002060006101000a81548173ffffffffffffffffffffffffffffffffffffffff021916908373ffffffffffffffffffffffffffffffffffffffff160217905550808273ffffffffffffffffffffffffffffffffffffffff168473ffffffffffffffffffffffffffffffffffffffff167fddf252ad1be2c89b69c2b068fc378daa952ba7f163c4a11628f55a4df523b3ef60405160405180910390a4611c488383836122e3565b505050565b60008183611c5b9190613902565b905092915050565b6000600a60009054906101000a900473ffffffffffffffffffffffffffffffffffffffff16905081600a60006101000a81548173ffffffffffffffffffffffffffffffffffffffff021916908373ffffffffffffffffffffffffffffffffffffffff1602179055508173ffffffffffffffffffffffffffffffffffffffff168173ffffffffffffffffffffffffffffffffffffffff167f8be0079c531659141344cd1fd0a4f28419497f9722a3daafe3b4186f6b6457e060405160405180910390a35050565b8173ffffffffffffffffffffffffffffffffffffffff168373ffffffffffffffffffffffffffffffffffffffff161415611d98576040517f08c379a0000000000000000000000000000000000000000000000000000000008152600401611d8f90613532565b60405180910390fd5b80600560008573ffffffffffffffffffffffffffffffffffffffff1673ffffffffffffffffffffffffffffffffffffffff16815260200190815260200160002060008473ffffffffffffffffffffffffffffffffffffffff1673ffffffffffffffffffffffffffffffffffffffff16815260200190815260200160002060006101000a81548160ff0219169083151502179055508173ffffffffffffffffffffffffffffffffffffffff168373ffffffffffffffffffffffffffffffffffffffff167f17307eab39ab6107e8899845ad3d59bd9653f200f220920489ca2b5937696c3183604051611e899190613415565b60405180910390a3505050565b611ea18484846119e6565b611ead848484846122e8565b611eec576040517f08c379a0000000000000000000000000000000000000000000000000000000008152600401611ee390613492565b60405180910390fd5b50505050565b6060600b8054611f0190613a46565b80601f0160208091040260200160405190810160405280929190818152602001828054611f2d90613a46565b8015611f7a5780601f10611f4f57610100808354040283529160200191611f7a565b820191906000526020600020905b815481529060010190602001808311611f5d57829003601f168201915b5050505050905090565b60606000821415611fcc576040518060400160405280600181526020017f3000000000000000000000000000000000000000000000000000000000000000815250905061212c565b600082905060005b60008214611ffe578080611fe790613aa9565b915050600a82611ff791906138d1565b9150611fd4565b60008167ffffffffffffffff811115612040577f4e487b7100000000000000000000000000000000000000000000000000000000600052604160045260246000fd5b6040519080825280601f01601f1916602001820160405280156120725781602001600182028036833780820191505090505b5090505b600085146121255760018261208b919061395c565b9150600a8561209a9190613af2565b60306120a6919061387b565b60f81b8183815181106120e2577f4e487b7100000000000000000000000000000000000000000000000000000000600052603260045260246000fd5b60200101907effffffffffffffffffffffffffffffffffffffffffffffffffffffffffffff1916908160001a905350600a8561211e91906138d1565b9450612076565b8093505050505b919050565b60007f01ffc9a7000000000000000000000000000000000000000000000000000000007bffffffffffffffffffffffffffffffffffffffffffffffffffffffff1916827bffffffffffffffffffffffffffffffffffffffffffffffffffffffff1916149050919050565b6121b582826040518060200160405280600081525061247f565b5050565b6001816000016000828254019250508190555050565b6121da8383836124da565b600073ffffffffffffffffffffffffffffffffffffffff168373ffffffffffffffffffffffffffffffffffffffff16141561221d57612218816124df565b61225c565b8173ffffffffffffffffffffffffffffffffffffffff168373ffffffffffffffffffffffffffffffffffffffff161461225b5761225a8382612528565b5b5b600073ffffffffffffffffffffffffffffffffffffffff168273ffffffffffffffffffffffffffffffffffffffff16141561229f5761229a81612695565b6122de565b8273ffffffffffffffffffffffffffffffffffffffff168273ffffffffffffffffffffffffffffffffffffffff16146122dd576122dc82826127d8565b5b5b505050565b505050565b60006123098473ffffffffffffffffffffffffffffffffffffffff16612857565b15612472578373ffffffffffffffffffffffffffffffffffffffff1663150b7a026123326117fe565b8786866040518563ffffffff1660e01b815260040161235494939291906133a7565b602060405180830381600087803b15801561236e57600080fd5b505af192505050801561239f57506040513d601f19601f8201168201806040525081019061239c9190612e00565b60015b612422573d80600081146123cf576040519150601f19603f3d011682016040523d82523d6000602084013e6123d4565b606091505b5060008151141561241a576040517f08c379a000000000000000000000000000000000000000000000000000000000815260040161241190613492565b60405180910390fd5b805181602001fd5b63150b7a0260e01b7bffffffffffffffffffffffffffffffffffffffffffffffffffffffff1916817bffffffffffffffffffffffffffffffffffffffffffffffffffffffff191614915050612477565b600190505b949350505050565b612489838361287a565b61249660008484846122e8565b6124d5576040517f08c379a00000000000000000000000000000000000000000000000000000000081526004016124cc90613492565b60405180910390fd5b505050565b505050565b6008805490506009600083815260200190815260200160002081905550600881908060018154018082558091505060019003906000526020600020016000909190919091505550565b6000600161253584611060565b61253f919061395c565b9050600060076000848152602001908152602001600020549050818114612624576000600660008673ffffffffffffffffffffffffffffffffffffffff1673ffffffffffffffffffffffffffffffffffffffff168152602001908152602001600020600084815260200190815260200160002054905080600660008773ffffffffffffffffffffffffffffffffffffffff1673ffffffffffffffffffffffffffffffffffffffff168152602001908152602001600020600084815260200190815260200160002081905550816007600083815260200190815260200160002081905550505b6007600084815260200190815260200160002060009055600660008573ffffffffffffffffffffffffffffffffffffffff1673ffffffffffffffffffffffffffffffffffffffff16815260200190815260200160002060008381526020019081526020016000206000905550505050565b600060016008805490506126a9919061395c565b90506000600960008481526020019081526020016000205490506000600883815481106126ff577f4e487b7100000000000000000000000000000000000000000000000000000000600052603260045260246000fd5b906000526020600020015490508060088381548110612747577f4e487b7100000000000000000000000000000000000000000000000000000000600052603260045260246000fd5b9060005260206000200181905550816009600083815260200190815260200160002081905550600960008581526020019081526020016000206000905560088054806127bc577f4e487b7100000000000000000000000000000000000000000000000000000000600052603160045260246000fd5b6001900381819060005260206000200160009055905550505050565b60006127e383611060565b905081600660008573ffffffffffffffffffffffffffffffffffffffff1673ffffffffffffffffffffffffffffffffffffffff168152602001908152602001600020600083815260200190815260200160002081905550806007600084815260200190815260200160002081905550505050565b6000808273ffffffffffffffffffffffffffffffffffffffff163b119050919050565b600073ffffffffffffffffffffffffffffffffffffffff168273ffffffffffffffffffffffffffffffffffffffff1614156128ea576040517f08c379a00000000000000000000000000000000000000000000000000000000081526004016128e190613632565b60405180910390fd5b6128f381611792565b15612933576040517f08c379a000000000000000000000000000000000000000000000000000000000815260040161292a906134f2565b60405180910390fd5b61293f600083836121cf565b6001600360008473ffffffffffffffffffffffffffffffffffffffff1673ffffffffffffffffffffffffffffffffffffffff168152602001908152602001600020600082825461298f919061387b565b92505081905550816002600083815260200190815260200160002060006101000a81548173ffffffffffffffffffffffffffffffffffffffff021916908373ffffffffffffffffffffffffffffffffffffffff160217905550808273ffffffffffffffffffffffffffffffffffffffff16600073ffffffffffffffffffffffffffffffffffffffff167fddf252ad1be2c89b69c2b068fc378daa952ba7f163c4a11628f55a4df523b3ef60405160405180910390a4612a50600083836122e3565b5050565b828054612a6090613a46565b90600052602060002090601f016020900481019282612a825760008555612ac9565b82601f10612a9b57805160ff1916838001178555612ac9565b82800160010185558215612ac9579182015b82811115612ac8578251825591602001919060010190612aad565b5b509050612ad69190612ada565b5090565b5b80821115612af3576000816000905550600101612adb565b5090565b6000612b0a612b0584613792565b61376d565b905082815260208101848484011115612b2257600080fd5b612b2d848285613a04565b509392505050565b6000612b48612b43846137c3565b61376d565b905082815260208101848484011115612b6057600080fd5b612b6b848285613a04565b509392505050565b600081359050612b828161422b565b92915050565b600081359050612b9781614242565b92915050565b600081359050612bac81614259565b92915050565b600081519050612bc181614259565b92915050565b600082601f830112612bd857600080fd5b8135612be8848260208601612af7565b91505092915050565b600082601f830112612c0257600080fd5b8135612c12848260208601612b35565b91505092915050565b600081359050612c2a81614270565b92915050565b600060208284031215612c4257600080fd5b6000612c5084828501612b73565b91505092915050565b60008060408385031215612c6c57600080fd5b6000612c7a85828601612b73565b9250506020612c8b85828601612b73565b9150509250929050565b600080600060608486031215612caa57600080fd5b6000612cb886828701612b73565b9350506020612cc986828701612b73565b9250506040612cda86828701612c1b565b9150509250925092565b60008060008060808587031215612cfa57600080fd5b6000612d0887828801612b73565b9450506020612d1987828801612b73565b9350506040612d2a87828801612c1b565b925050606085013567ffffffffffffffff811115612d4757600080fd5b612d5387828801612bc7565b91505092959194509250565b60008060408385031215612d7257600080fd5b6000612d8085828601612b73565b9250506020612d9185828601612b88565b9150509250929050565b60008060408385031215612dae57600080fd5b6000612dbc85828601612b73565b9250506020612dcd85828601612c1b565b9150509250929050565b600060208284031215612de957600080fd5b6000612df784828501612b9d565b91505092915050565b600060208284031215612e1257600080fd5b6000612e2084828501612bb2565b91505092915050565b600060208284031215612e3b57600080fd5b600082013567ffffffffffffffff811115612e5557600080fd5b612e6184828501612bf1565b91505092915050565b600060208284031215612e7c57600080fd5b6000612e8a84828501612c1b565b91505092915050565b6000612e9f8383613335565b60208301905092915050565b612eb481613990565b82525050565b6000612ec582613804565b612ecf8185613832565b9350612eda836137f4565b8060005b83811015612f0b578151612ef28882612e93565b9750612efd83613825565b925050600181019050612ede565b5085935050505092915050565b612f21816139a2565b82525050565b6000612f328261380f565b612f3c8185613843565b9350612f4c818560208601613a13565b612f5581613bdf565b840191505092915050565b6000612f6b8261381a565b612f75818561385f565b9350612f85818560208601613a13565b612f8e81613bdf565b840191505092915050565b6000612fa48261381a565b612fae8185613870565b9350612fbe818560208601613a13565b80840191505092915050565b6000612fd760108361385f565b9150612fe282613bf0565b602082019050919050565b6000612ffa602b8361385f565b915061300582613c19565b604082019050919050565b600061301d60328361385f565b915061302882613c68565b604082019050919050565b600061304060268361385f565b915061304b82613cb7565b604082019050919050565b600061306360258361385f565b915061306e82613d06565b604082019050919050565b6000613086601c8361385f565b915061309182613d55565b602082019050919050565b60006130a960248361385f565b91506130b482613d7e565b604082019050919050565b60006130cc60198361385f565b91506130d782613dcd565b602082019050919050565b60006130ef60228361385f565b91506130fa82613df6565b604082019050919050565b600061311260258361385f565b915061311d82613e45565b604082019050919050565b6000613135602c8361385f565b915061314082613e94565b604082019050919050565b600061315860388361385f565b915061316382613ee3565b604082019050919050565b600061317b602a8361385f565b915061318682613f32565b604082019050919050565b600061319e60298361385f565b91506131a982613f81565b604082019050919050565b60006131c1600f8361385f565b91506131cc82613fd0565b602082019050919050565b60006131e460208361385f565b91506131ef82613ff9565b602082019050919050565b600061320760198361385f565b915061321282614022565b602082019050919050565b600061322a602c8361385f565b91506132358261404b565b604082019050919050565b600061324d60208361385f565b91506132588261409a565b602082019050919050565b6000613270602f8361385f565b915061327b826140c3565b604082019050919050565b600061329360218361385f565b915061329e82614112565b604082019050919050565b60006132b6600083613854565b91506132c182614161565b600082019050919050565b60006132d960108361385f565b91506132e482614164565b602082019050919050565b60006132fc60318361385f565b91506133078261418d565b604082019050919050565b600061331f602c8361385f565b915061332a826141dc565b604082019050919050565b61333e816139fa565b82525050565b61334d816139fa565b82525050565b600061335f8285612f99565b915061336b8284612f99565b91508190509392505050565b6000613382826132a9565b9150819050919050565b60006020820190506133a16000830184612eab565b92915050565b60006080820190506133bc6000830187612eab565b6133c96020830186612eab565b6133d66040830185613344565b81810360608301526133e88184612f27565b905095945050505050565b6000602082019050818103600083015261340d8184612eba565b905092915050565b600060208201905061342a6000830184612f18565b92915050565b6000602082019050818103600083015261344a8184612f60565b905092915050565b6000602082019050818103600083015261346b81612fca565b9050919050565b6000602082019050818103600083015261348b81612fed565b9050919050565b600060208201905081810360008301526134ab81613010565b9050919050565b600060208201905081810360008301526134cb81613033565b9050919050565b600060208201905081810360008301526134eb81613056565b9050919050565b6000602082019050818103600083015261350b81613079565b9050919050565b6000602082019050818103600083015261352b8161309c565b9050919050565b6000602082019050818103600083015261354b816130bf565b9050919050565b6000602082019050818103600083015261356b816130e2565b9050919050565b6000602082019050818103600083015261358b81613105565b9050919050565b600060208201905081810360008301526135ab81613128565b9050919050565b600060208201905081810360008301526135cb8161314b565b9050919050565b600060208201905081810360008301526135eb8161316e565b9050919050565b6000602082019050818103600083015261360b81613191565b9050919050565b6000602082019050818103600083015261362b816131b4565b9050919050565b6000602082019050818103600083015261364b816131d7565b9050919050565b6000602082019050818103600083015261366b816131fa565b9050919050565b6000602082019050818103600083015261368b8161321d565b9050919050565b600060208201905081810360008301526136ab81613240565b9050919050565b600060208201905081810360008301526136cb81613263565b9050919050565b600060208201905081810360008301526136eb81613286565b9050919050565b6000602082019050818103600083015261370b816132cc565b9050919050565b6000602082019050818103600083015261372b816132ef565b9050919050565b6000602082019050818103600083015261374b81613312565b9050919050565b60006020820190506137676000830184613344565b92915050565b6000613777613788565b90506137838282613a78565b919050565b6000604051905090565b600067ffffffffffffffff8211156137ad576137ac613bb0565b5b6137b682613bdf565b9050602081019050919050565b600067ffffffffffffffff8211156137de576137dd613bb0565b5b6137e782613bdf565b9050602081019050919050565b6000819050602082019050919050565b600081519050919050565b600081519050919050565b600081519050919050565b6000602082019050919050565b600082825260208201905092915050565b600082825260208201905092915050565b600081905092915050565b600082825260208201905092915050565b600081905092915050565b6000613886826139fa565b9150613891836139fa565b9250827fffffffffffffffffffffffffffffffffffffffffffffffffffffffffffffffff038211156138c6576138c5613b23565b5b828201905092915050565b60006138dc826139fa565b91506138e7836139fa565b9250826138f7576138f6613b52565b5b828204905092915050565b600061390d826139fa565b9150613918836139fa565b9250817fffffffffffffffffffffffffffffffffffffffffffffffffffffffffffffffff048311821515161561395157613950613b23565b5b828202905092915050565b6000613967826139fa565b9150613972836139fa565b92508282101561398557613984613b23565b5b828203905092915050565b600061399b826139da565b9050919050565b60008115159050919050565b60007fffffffff0000000000000000000000000000000000000000000000000000000082169050919050565b600073ffffffffffffffffffffffffffffffffffffffff82169050919050565b6000819050919050565b82818337600083830152505050565b60005b83811015613a31578082015181840152602081019050613a16565b83811115613a40576000848401525b50505050565b60006002820490506001821680613a5e57607f821691505b60208210811415613a7257613a71613b81565b5b50919050565b613a8182613bdf565b810181811067ffffffffffffffff82111715613aa057613a9f613bb0565b5b80604052505050565b6000613ab4826139fa565b91507fffffffffffffffffffffffffffffffffffffffffffffffffffffffffffffffff821415613ae757613ae6613b23565b5b600182019050919050565b6000613afd826139fa565b9150613b08836139fa565b925082613b1857613b17613b52565b5b828206905092915050565b7f4e487b7100000000000000000000000000000000000000000000000000000000600052601160045260246000fd5b7f4e487b7100000000000000000000000000000000000000000000000000000000600052601260045260246000fd5b7f4e487b7100000000000000000000000000000000000000000000000000000000600052602260045260246000fd5b7f4e487b7100000000000000000000000000000000000000000000000000000000600052604160045260246000fd5b6000601f19601f8301169050919050565b7f4e6f7420656e6f756768204e4654732100000000000000000000000000000000600082015250565b7f455243373231456e756d657261626c653a206f776e657220696e646578206f7560008201527f74206f6620626f756e6473000000000000000000000000000000000000000000602082015250565b7f4552433732313a207472616e7366657220746f206e6f6e20455243373231526560008201527f63656976657220696d706c656d656e7465720000000000000000000000000000602082015250565b7f4f776e61626c653a206e6577206f776e657220697320746865207a65726f206160008201527f6464726573730000000000000000000000000000000000000000000000000000602082015250565b7f4552433732313a207472616e736665722066726f6d20696e636f72726563742060008201527f6f776e6572000000000000000000000000000000000000000000000000000000602082015250565b7f4552433732313a20746f6b656e20616c7265616479206d696e74656400000000600082015250565b7f4552433732313a207472616e7366657220746f20746865207a65726f2061646460008201527f7265737300000000000000000000000000000000000000000000000000000000602082015250565b7f4552433732313a20617070726f766520746f2063616c6c657200000000000000600082015250565b7f4e6f7420656e6f75676820657468657220746f207075726368617365204e465460008201527f732e000000000000000000000000000000000000000000000000000000000000602082015250565b7f43616e6e6f74206d696e7420737065636966696564206e756d626572206f662060008201527f4e4654732e000000000000000000000000000000000000000000000000000000602082015250565b7f4552433732313a206f70657261746f7220717565727920666f72206e6f6e657860008201527f697374656e7420746f6b656e0000000000000000000000000000000000000000602082015250565b7f4552433732313a20617070726f76652063616c6c6572206973206e6f74206f7760008201527f6e6572206e6f7220617070726f76656420666f7220616c6c0000000000000000602082015250565b7f4552433732313a2062616c616e636520717565727920666f7220746865207a6560008201527f726f206164647265737300000000000000000000000000000000000000000000602082015250565b7f4552433732313a206f776e657220717565727920666f72206e6f6e657869737460008201527f656e7420746f6b656e0000000000000000000000000000000000000000000000602082015250565b7f4e6f7420656e6f756768204e4654730000000000000000000000000000000000600082015250565b7f4552433732313a206d696e7420746f20746865207a65726f2061646472657373600082015250565b7f4e6f206574686572206c65667420746f20776974686472617700000000000000600082015250565b7f4552433732313a20617070726f76656420717565727920666f72206e6f6e657860008201527f697374656e7420746f6b656e0000000000000000000000000000000000000000602082015250565b7f4f776e61626c653a2063616c6c6572206973206e6f7420746865206f776e6572600082015250565b7f4552433732314d657461646174613a2055524920717565727920666f72206e6f60008201527f6e6578697374656e7420746f6b656e0000000000000000000000000000000000602082015250565b7f4552433732313a20617070726f76616c20746f2063757272656e74206f776e6560008201527f7200000000000000000000000000000000000000000000000000000000000000602082015250565b50565b7f5472616e73666572206661696c65642e00000000000000000000000000000000600082015250565b7f4552433732313a207472616e736665722063616c6c6572206973206e6f74206f60008201527f776e6572206e6f7220617070726f766564000000000000000000000000000000602082015250565b7f455243373231456e756d657261626c653a20676c6f62616c20696e646578206f60008201527f7574206f6620626f756e64730000000000000000000000000000000000000000602082015250565b61423481613990565b811461423f57600080fd5b50565b61424b816139a2565b811461425657600080fd5b50565b614262816139ae565b811461426d57600080fd5b50565b614279816139fa565b811461428457600080fd5b5056fea264697066735822122068a8c010371efca445c2a6d2c933ec1eaf143450fe21b322d13e166cce4ef65c64736f6c63430008040033",
  "linkReferences": {},
  "deployedLinkReferences": {}
}